{
  "_format": "hh-sol-artifact-1",
  "contractName": "DomainRegistry",
  "sourceName": "contracts/DomainRegistry.sol",
  "abi": [
    {
      "inputs": [
        {
          "internalType": "string",
          "name": "domainName",
          "type": "string"
        }
      ],
      "name": "checkDomain",
      "outputs": [
        {
          "internalType": "bool",
          "name": "",
          "type": "bool"
        }
      ],
      "stateMutability": "view",
      "type": "function"
    },
    {
      "inputs": [
        {
          "internalType": "string",
          "name": "",
          "type": "string"
        }
      ],
      "name": "domains",
      "outputs": [
        {
          "internalType": "address",
          "name": "",
          "type": "address"
        }
      ],
      "stateMutability": "view",
      "type": "function"
    },
    {
      "inputs": [
        {
          "internalType": "string",
          "name": "domainName",
          "type": "string"
        }
      ],
      "name": "registerDomain",
      "outputs": [],
      "stateMutability": "nonpayable",
      "type": "function"
    },
    {
      "inputs": [
        {
          "internalType": "address",
          "name": "",
          "type": "address"
        }
      ],
      "name": "userDomain",
      "outputs": [
        {
          "internalType": "string",
          "name": "",
          "type": "string"
        }
      ],
      "stateMutability": "view",
      "type": "function"
    }
  ],
  "bytecode": "0x608060405234801561001057600080fd5b50610be5806100206000396000f3fe608060405234801561001057600080fd5b506004361061004c5760003560e01c8063264492351461005157806343166d78146100815780638b5f1609146100b1578063a5cad08a146100e1575b600080fd5b61006b600480360381019061006691906105a1565b6100fd565b604051610078919061062b565b60405180910390f35b61009b600480360381019061009691906105a1565b610146565b6040516100a89190610661565b60405180910390f35b6100cb60048036038101906100c691906106a8565b6101bd565b6040516100d89190610754565b60405180910390f35b6100fb60048036038101906100f691906105a1565b61025d565b005b6000818051602081018201805184825260208301602085012081835280955050505050506000915054906101000a900473ffffffffffffffffffffffffffffffffffffffff1681565b60008073ffffffffffffffffffffffffffffffffffffffff1660008360405161016f91906107b2565b908152602001604051809103902060009054906101000a900473ffffffffffffffffffffffffffffffffffffffff1673ffffffffffffffffffffffffffffffffffffffff1614159050919050565b600160205280600052604060002060009150905080546101dc906107f8565b80601f0160208091040260200160405190810160405280929190818152602001828054610208906107f8565b80156102555780601f1061022a57610100808354040283529160200191610255565b820191906000526020600020905b81548152906001019060200180831161023857829003601f168201915b505050505081565b80600073ffffffffffffffffffffffffffffffffffffffff1660008260405161028691906107b2565b908152602001604051809103902060009054906101000a900473ffffffffffffffffffffffffffffffffffffffff1673ffffffffffffffffffffffffffffffffffffffff161461030b576040517f08c379a000000000000000000000000000000000000000000000000000000000815260040161030290610875565b60405180910390fd5b6000600160003373ffffffffffffffffffffffffffffffffffffffff1673ffffffffffffffffffffffffffffffffffffffff1681526020019081526020016000208054610357906107f8565b905014610399576040517f08c379a000000000000000000000000000000000000000000000000000000000815260040161039090610907565b60405180910390fd5b336000836040516103aa91906107b2565b908152602001604051809103902060006101000a81548173ffffffffffffffffffffffffffffffffffffffff021916908373ffffffffffffffffffffffffffffffffffffffff16021790555081600160003373ffffffffffffffffffffffffffffffffffffffff1673ffffffffffffffffffffffffffffffffffffffff16815260200190815260200160002090816104429190610add565b505050565b6000604051905090565b600080fd5b600080fd5b600080fd5b600080fd5b6000601f19601f8301169050919050565b7f4e487b7100000000000000000000000000000000000000000000000000000000600052604160045260246000fd5b6104ae82610465565b810181811067ffffffffffffffff821117156104cd576104cc610476565b5b80604052505050565b60006104e0610447565b90506104ec82826104a5565b919050565b600067ffffffffffffffff82111561050c5761050b610476565b5b61051582610465565b9050602081019050919050565b82818337600083830152505050565b600061054461053f846104f1565b6104d6565b9050828152602081018484840111156105605761055f610460565b5b61056b848285610522565b509392505050565b600082601f8301126105885761058761045b565b5b8135610598848260208601610531565b91505092915050565b6000602082840312156105b7576105b6610451565b5b600082013567ffffffffffffffff8111156105d5576105d4610456565b5b6105e184828501610573565b91505092915050565b600073ffffffffffffffffffffffffffffffffffffffff82169050919050565b6000610615826105ea565b9050919050565b6106258161060a565b82525050565b6000602082019050610640600083018461061c565b92915050565b60008115159050919050565b61065b81610646565b82525050565b60006020820190506106766000830184610652565b92915050565b6106858161060a565b811461069057600080fd5b50565b6000813590506106a28161067c565b92915050565b6000602082840312156106be576106bd610451565b5b60006106cc84828501610693565b91505092915050565b600081519050919050565b600082825260208201905092915050565b60005b8381101561070f5780820151818401526020810190506106f4565b60008484015250505050565b6000610726826106d5565b61073081856106e0565b93506107408185602086016106f1565b61074981610465565b840191505092915050565b6000602082019050818103600083015261076e818461071b565b905092915050565b600081905092915050565b600061078c826106d5565b6107968185610776565b93506107a68185602086016106f1565b80840191505092915050565b60006107be8284610781565b915081905092915050565b7f4e487b7100000000000000000000000000000000000000000000000000000000600052602260045260246000fd5b6000600282049050600182168061081057607f821691505b602082108103610823576108226107c9565b5b50919050565b7f446f6d61696e20616c7265616479206578697374730000000000000000000000600082015250565b600061085f6015836106e0565b915061086a82610829565b602082019050919050565b6000602082019050818103600083015261088e81610852565b9050919050565b7f4f6e6520646f6d61696e207065722061646472657373206973207065726d697460008201527f7465640000000000000000000000000000000000000000000000000000000000602082015250565b60006108f16023836106e0565b91506108fc82610895565b604082019050919050565b60006020820190508181036000830152610920816108e4565b9050919050565b60008190508160005260206000209050919050565b60006020601f8301049050919050565b600082821b905092915050565b6000600883026109897fffffffffffffffffffffffffffffffffffffffffffffffffffffffffffffffff8261094c565b610993868361094c565b95508019841693508086168417925050509392505050565b6000819050919050565b6000819050919050565b60006109da6109d56109d0846109ab565b6109b5565b6109ab565b9050919050565b6000819050919050565b6109f4836109bf565b610a08610a00826109e1565b848454610959565b825550505050565b600090565b610a1d610a10565b610a288184846109eb565b505050565b5b81811015610a4c57610a41600082610a15565b600181019050610a2e565b5050565b601f821115610a9157610a6281610927565b610a6b8461093c565b81016020851015610a7a578190505b610a8e610a868561093c565b830182610a2d565b50505b505050565b600082821c905092915050565b6000610ab460001984600802610a96565b1980831691505092915050565b6000610acd8383610aa3565b9150826002028217905092915050565b610ae6826106d5565b67ffffffffffffffff811115610aff57610afe610476565b5b610b0982546107f8565b610b14828285610a50565b600060209050601f831160018114610b475760008415610b35578287015190505b610b3f8582610ac1565b865550610ba7565b601f198416610b5586610927565b60005b82811015610b7d57848901518255600182019150602085019450602081019050610b58565b86831015610b9a5784890151610b96601f891682610aa3565b8355505b6001600288020188555050505b50505050505056fea26469706673582212202902e353bc9cae74880cb5db29ce461a96d03551606bd54b8353a6dafd9fc70364736f6c63430008120033",
  "linkReferences": {},
  "deployedLinkReferences": {}
}